{
  "contractName": "Marketplace",
  "abi": [
    {
      "inputs": [
        {
          "internalType": "uint256",
          "name": "_feePercent",
          "type": "uint256"
        }
      ],
      "stateMutability": "nonpayable",
      "type": "constructor"
    },
    {
      "anonymous": false,
      "inputs": [
        {
          "indexed": false,
          "internalType": "uint256",
          "name": "itemId",
          "type": "uint256"
        },
        {
          "indexed": true,
          "internalType": "address",
          "name": "nft",
          "type": "address"
        },
        {
          "indexed": false,
          "internalType": "uint256",
          "name": "tokenId",
          "type": "uint256"
        },
        {
          "indexed": false,
          "internalType": "uint256",
          "name": "price",
          "type": "uint256"
        },
        {
          "indexed": true,
          "internalType": "address",
          "name": "seller",
          "type": "address"
        }
      ],
      "name": "Auctioned",
      "type": "event"
    },
    {
      "anonymous": false,
      "inputs": [
        {
          "indexed": false,
          "internalType": "uint256",
          "name": "itemId",
          "type": "uint256"
        },
        {
          "indexed": true,
          "internalType": "address",
          "name": "nft",
          "type": "address"
        },
        {
          "indexed": false,
          "internalType": "uint256",
          "name": "tokenId",
          "type": "uint256"
        },
        {
          "indexed": false,
          "internalType": "uint256",
          "name": "price",
          "type": "uint256"
        },
        {
          "indexed": true,
          "internalType": "address",
          "name": "seller",
          "type": "address"
        },
        {
          "indexed": true,
          "internalType": "address",
          "name": "buyer",
          "type": "address"
        }
      ],
      "name": "Bought",
      "type": "event"
    },
    {
      "inputs": [],
      "name": "feeAccount",
      "outputs": [
        {
          "internalType": "address payable",
          "name": "",
          "type": "address"
        }
      ],
      "stateMutability": "view",
      "type": "function"
    },
    {
      "inputs": [],
      "name": "feePercent",
      "outputs": [
        {
          "internalType": "uint256",
          "name": "",
          "type": "uint256"
        }
      ],
      "stateMutability": "view",
      "type": "function"
    },
    {
      "inputs": [],
      "name": "itemCount",
      "outputs": [
        {
          "internalType": "uint256",
          "name": "",
          "type": "uint256"
        }
      ],
      "stateMutability": "view",
      "type": "function"
    },
    {
      "inputs": [
        {
          "internalType": "uint256",
          "name": "",
          "type": "uint256"
        }
      ],
      "name": "items",
      "outputs": [
        {
          "internalType": "uint256",
          "name": "itemid",
          "type": "uint256"
        },
        {
          "internalType": "contract IERC721",
          "name": "nft",
          "type": "address"
        },
        {
          "internalType": "uint256",
          "name": "tokenId",
          "type": "uint256"
        },
        {
          "internalType": "uint256",
          "name": "price",
          "type": "uint256"
        },
        {
          "internalType": "address payable",
          "name": "seller",
          "type": "address"
        },
        {
          "internalType": "bool",
          "name": "sold",
          "type": "bool"
        }
      ],
      "stateMutability": "view",
      "type": "function"
    },
    {
      "inputs": [
        {
          "internalType": "contract IERC721",
          "name": "_nft",
          "type": "address"
        },
        {
          "internalType": "uint256",
          "name": "_tokenId",
          "type": "uint256"
        },
        {
          "internalType": "uint256",
          "name": "_price",
          "type": "uint256"
        }
      ],
      "name": "makeItem",
      "outputs": [],
      "stateMutability": "nonpayable",
      "type": "function"
    },
    {
      "inputs": [
        {
          "internalType": "uint256",
          "name": "_itemId",
          "type": "uint256"
        }
      ],
      "name": "purchaseItem",
      "outputs": [],
      "stateMutability": "payable",
      "type": "function"
    },
    {
      "inputs": [
        {
          "internalType": "uint256",
          "name": "_itemId",
          "type": "uint256"
        }
      ],
      "name": "getTotalPrice",
      "outputs": [
        {
          "internalType": "uint256",
          "name": "",
          "type": "uint256"
        }
      ],
      "stateMutability": "view",
      "type": "function"
    }
  ],
  "bytecode": "0x60c060405234801561001057600080fd5b50604051620011d9380380620011d9833981810160405281019061003491906100b9565b60016000819055503373ffffffffffffffffffffffffffffffffffffffff1660808173ffffffffffffffffffffffffffffffffffffffff16815250508060a08181525050506100e6565b600080fd5b6000819050919050565b61009681610083565b81146100a157600080fd5b50565b6000815190506100b38161008d565b92915050565b6000602082840312156100cf576100ce61007e565b5b60006100dd848285016100a4565b91505092915050565b60805160a0516110bf6200011a600039600081816101e601526102970152600081816101bc01526104bc01526110bf6000f3fe6080604052600436106100705760003560e01c8063bfb231d21161004e578063bfb231d2146100f6578063ca7dd37514610138578063d38ea5bf14610175578063fa00afc71461019157610070565b806365e17c9d146100755780636bfb0d01146100a05780637fd6f15c146100cb575b600080fd5b34801561008157600080fd5b5061008a6101ba565b60405161009791906109d3565b60405180910390f35b3480156100ac57600080fd5b506100b56101de565b6040516100c29190610a07565b60405180910390f35b3480156100d757600080fd5b506100e06101e4565b6040516100ed9190610a07565b60405180910390f35b34801561010257600080fd5b5061011d60048036038101906101189190610a53565b610208565b60405161012f96959493929190610afa565b60405180910390f35b34801561014457600080fd5b5061015f600480360381019061015a9190610a53565b610291565b60405161016c9190610a07565b60405180910390f35b61018f600480360381019061018a9190610a53565b6102f4565b005b34801561019d57600080fd5b506101b860048036038101906101b39190610bab565b6106c1565b005b7f000000000000000000000000000000000000000000000000000000000000000081565b60015481565b7f000000000000000000000000000000000000000000000000000000000000000081565b60026020528060005260406000206000915090508060000154908060010160009054906101000a900473ffffffffffffffffffffffffffffffffffffffff16908060020154908060030154908060040160009054906101000a900473ffffffffffffffffffffffffffffffffffffffff16908060040160149054906101000a900460ff16905086565b600060647f000000000000000000000000000000000000000000000000000000000000000060646102c29190610c2d565b60026000858152602001908152602001600020600301546102e39190610c83565b6102ed9190610d0c565b9050919050565b600260005403610339576040517f08c379a000000000000000000000000000000000000000000000000000000000815260040161033090610d9a565b60405180910390fd5b6002600081905550600061034c82610291565b9050600060026000848152602001908152602001600020905060008311801561037757506001548311155b6103b6576040517f08c379a00000000000000000000000000000000000000000000000000000000081526004016103ad90610e06565b60405180910390fd5b813410156103f9576040517f08c379a00000000000000000000000000000000000000000000000000000000081526004016103f090610e98565b60405180910390fd5b8060040160149054906101000a900460ff161561044b576040517f08c379a000000000000000000000000000000000000000000000000000000000815260040161044290610f04565b60405180910390fd5b8060040160009054906101000a900473ffffffffffffffffffffffffffffffffffffffff1673ffffffffffffffffffffffffffffffffffffffff166108fc82600301549081150290604051600060405180830381858888f193505050501580156104b9573d6000803e3d6000fd5b507f000000000000000000000000000000000000000000000000000000000000000073ffffffffffffffffffffffffffffffffffffffff166108fc8260030154846105049190610f24565b9081150290604051600060405180830381858888f1935050505015801561052f573d6000803e3d6000fd5b5060018160040160146101000a81548160ff0219169083151502179055508060010160009054906101000a900473ffffffffffffffffffffffffffffffffffffffff1673ffffffffffffffffffffffffffffffffffffffff166323b872dd303384600201546040518463ffffffff1660e01b81526004016105b293929190610f67565b600060405180830381600087803b1580156105cc57600080fd5b505af11580156105e0573d6000803e3d6000fd5b505050503373ffffffffffffffffffffffffffffffffffffffff168160040160009054906101000a900473ffffffffffffffffffffffffffffffffffffffff1673ffffffffffffffffffffffffffffffffffffffff168260010160009054906101000a900473ffffffffffffffffffffffffffffffffffffffff1673ffffffffffffffffffffffffffffffffffffffff167f8b4c9c8a607d67b321582dd8461041b1dc2ceeca70c8b7f37f8e02095cf2e76d86856002015486600301546040516106ac93929190610f9e565b60405180910390a45050600160008190555050565b600260005403610706576040517f08c379a00000000000000000000000000000000000000000000000000000000081526004016106fd90610d9a565b60405180910390fd5b600260008190555060008111610751576040517f08c379a000000000000000000000000000000000000000000000000000000000815260040161074890611021565b60405180910390fd5b6001600081548092919061076490611041565b91905055508273ffffffffffffffffffffffffffffffffffffffff166323b872dd3330856040518463ffffffff1660e01b81526004016107a693929190610f67565b600060405180830381600087803b1580156107c057600080fd5b505af11580156107d4573d6000803e3d6000fd5b505050506040518060c0016040528060015481526020018473ffffffffffffffffffffffffffffffffffffffff1681526020018381526020018281526020013373ffffffffffffffffffffffffffffffffffffffff168152602001600015158152506002600060015481526020019081526020016000206000820151816000015560208201518160010160006101000a81548173ffffffffffffffffffffffffffffffffffffffff021916908373ffffffffffffffffffffffffffffffffffffffff160217905550604082015181600201556060820151816003015560808201518160040160006101000a81548173ffffffffffffffffffffffffffffffffffffffff021916908373ffffffffffffffffffffffffffffffffffffffff16021790555060a08201518160040160146101000a81548160ff0219169083151502179055509050503373ffffffffffffffffffffffffffffffffffffffff168373ffffffffffffffffffffffffffffffffffffffff167f33cd723fbb91d85644385c7c895f15f7903a01e3e74cd1f85c3f965e76b88cd1600154858560405161097d93929190610f9e565b60405180910390a36001600081905550505050565b600073ffffffffffffffffffffffffffffffffffffffff82169050919050565b60006109bd82610992565b9050919050565b6109cd816109b2565b82525050565b60006020820190506109e860008301846109c4565b92915050565b6000819050919050565b610a01816109ee565b82525050565b6000602082019050610a1c60008301846109f8565b92915050565b600080fd5b610a30816109ee565b8114610a3b57600080fd5b50565b600081359050610a4d81610a27565b92915050565b600060208284031215610a6957610a68610a22565b5b6000610a7784828501610a3e565b91505092915050565b6000819050919050565b6000610aa5610aa0610a9b84610992565b610a80565b610992565b9050919050565b6000610ab782610a8a565b9050919050565b6000610ac982610aac565b9050919050565b610ad981610abe565b82525050565b60008115159050919050565b610af481610adf565b82525050565b600060c082019050610b0f60008301896109f8565b610b1c6020830188610ad0565b610b2960408301876109f8565b610b3660608301866109f8565b610b4360808301856109c4565b610b5060a0830184610aeb565b979650505050505050565b6000610b6682610992565b9050919050565b6000610b7882610b5b565b9050919050565b610b8881610b6d565b8114610b9357600080fd5b50565b600081359050610ba581610b7f565b92915050565b600080600060608486031215610bc457610bc3610a22565b5b6000610bd286828701610b96565b9350506020610be386828701610a3e565b9250506040610bf486828701610a3e565b9150509250925092565b7f4e487b7100000000000000000000000000000000000000000000000000000000600052601160045260246000fd5b6000610c38826109ee565b9150610c43836109ee565b9250827fffffffffffffffffffffffffffffffffffffffffffffffffffffffffffffffff03821115610c7857610c77610bfe565b5b828201905092915050565b6000610c8e826109ee565b9150610c99836109ee565b9250817fffffffffffffffffffffffffffffffffffffffffffffffffffffffffffffffff0483118215151615610cd257610cd1610bfe565b5b828202905092915050565b7f4e487b7100000000000000000000000000000000000000000000000000000000600052601260045260246000fd5b6000610d17826109ee565b9150610d22836109ee565b925082610d3257610d31610cdd565b5b828204905092915050565b600082825260208201905092915050565b7f5265656e7472616e637947756172643a207265656e7472616e742063616c6c00600082015250565b6000610d84601f83610d3d565b9150610d8f82610d4e565b602082019050919050565b60006020820190508181036000830152610db381610d77565b9050919050565b7f546865204e465420446f65736e2774204578697374732e2e0000000000000000600082015250565b6000610df0601883610d3d565b9150610dfb82610dba565b602082019050919050565b60006020820190508181036000830152610e1f81610de3565b9050919050565b7f4e6f7420456e6f75676820416d6f756e7420466f7220546865205472616e736160008201527f6374696f6e000000000000000000000000000000000000000000000000000000602082015250565b6000610e82602583610d3d565b9150610e8d82610e26565b604082019050919050565b60006020820190508181036000830152610eb181610e75565b9050919050565b7f54686973204e465420697320616c726561647920536f6c640000000000000000600082015250565b6000610eee601883610d3d565b9150610ef982610eb8565b602082019050919050565b60006020820190508181036000830152610f1d81610ee1565b9050919050565b6000610f2f826109ee565b9150610f3a836109ee565b925082821015610f4d57610f4c610bfe565b5b828203905092915050565b610f6181610b5b565b82525050565b6000606082019050610f7c6000830186610f58565b610f896020830185610f58565b610f9660408301846109f8565b949350505050565b6000606082019050610fb360008301866109f8565b610fc060208301856109f8565b610fcd60408301846109f8565b949350505050565b7f5072696365206d7573742062652067726561746572207468616e207a65726f00600082015250565b600061100b601f83610d3d565b915061101682610fd5565b602082019050919050565b6000602082019050818103600083015261103a81610ffe565b9050919050565b600061104c826109ee565b91507fffffffffffffffffffffffffffffffffffffffffffffffffffffffffffffffff820361107e5761107d610bfe565b5b60018201905091905056fea2646970667358221220cefd98e40c101a3b59dba761a954f7d217f6d1807acbb7af26f21efc180b339164736f6c634300080d0033",
  "immutableReferences": {
    "1758": [
      {
        "length": 32,
        "start": 444
      },
      {
        "length": 32,
        "start": 1212
      }
    ],
    "1760": [
      {
        "length": 32,
        "start": 486
      },
      {
        "length": 32,
        "start": 663
      }
    ]
  },
  "source": "// SPDX-License-Identifier: MIT\npragma solidity >=0.4.22 <0.9.0;\n\nimport \"@openzeppelin/contracts/token/ERC721/extensions/ERC721URIStorage.sol\";\nimport \"@openzeppelin/contracts/security/ReentrancyGuard.sol\";\n\ncontract Marketplace is ReentrancyGuard {\n    address payable public immutable feeAccount; //the account that receives fee for the transaction made. i.e the owner.\n    uint256 public immutable feePercent; // the fee commission percentage on sales\n    uint256 public itemCount;\n\n    constructor(uint256 _feePercent) {\n        feeAccount = payable(msg.sender);\n        feePercent = _feePercent;\n    }\n\n    struct Item {\n        uint256 itemid;\n        IERC721 nft; // Instance Of NFT contract associated with it.\n        uint256 tokenId;\n        uint256 price;\n        address payable seller;\n        bool sold;\n    }\n\n    mapping(uint256 => Item) public items;\n\n    event Auctioned(\n        uint256 itemId,\n        address indexed nft,\n        uint256 tokenId,\n        uint256 price,\n        address indexed seller\n    );\n\n    event Bought(\n        uint256 itemId,\n        address indexed nft,\n        uint256 tokenId,\n        uint256 price,\n        address indexed seller,\n        address indexed buyer\n    );\n\n    //Function to Auction An NFT.\n    function makeItem(\n        IERC721 _nft,\n        uint256 _tokenId,\n        uint256 _price\n    ) external nonReentrant {\n        require(_price > 0, \"Price must be greater than zero\");\n\n        //Number of items increased.\n        itemCount++;\n\n        //transfer nft to Marketplace.\n        _nft.transferFrom(msg.sender, address(this), _tokenId);\n\n        //Adding New Item to The Available Items List.\n        items[itemCount] = Item(\n            itemCount,\n            _nft,\n            _tokenId,\n            _price,\n            payable(msg.sender),\n            false\n        );\n        //BroadCasting the Auctioned Event For New NFT.\n        emit Auctioned(itemCount, address(_nft), _tokenId, _price, msg.sender);\n    }\n\n    //Function to Buy an NFT.\n    function purchaseItem(uint256 _itemId) external payable nonReentrant {\n        uint256 totalPrice = getTotalPrice(_itemId);\n        Item storage item = items[_itemId]; // Item storage defines the current storage Item; not new Copy oF Item struct.\n        require(\n            _itemId > 0 && _itemId <= itemCount,\n            \"The NFT Doesn't Exists..\"\n        );\n        require(\n            msg.value >= totalPrice,\n            \"Not Enough Amount For The Transaction\"\n        );\n        require(!item.sold, \"This NFT is already Sold\");\n        // Transfer coins to Seller and Commission to The MarketPlace\n        item.seller.transfer(item.price);\n        feeAccount.transfer(totalPrice - item.price);\n        //Update the Sold NFT Status.\n        item.sold = true;\n        //Tranfer the NFT to the Buyer\n        item.nft.transferFrom(address(this), msg.sender, item.tokenId);\n        //Emittig the Event\n        emit Bought(\n            _itemId,\n            address(item.nft),\n            item.tokenId,\n            item.price,\n            item.seller,\n            msg.sender\n        );\n    }\n//Evaluating the Total Price of NFT Including the Fee for Transaction \n    function getTotalPrice(uint256 _itemId) public view returns (uint256) {\n        return ((items[_itemId].price * (100 + feePercent)) / 100);\n    }\n}\n",
  "sourcePath": "/media/arya/_dev_sda3/blockChainProjects/nft-marketplace/my-nft-marketplace/src/contracts/Marketplace.sol",
  "compiler": {
    "name": "solc",
    "version": "0.8.13+commit.abaa5c0e.Emscripten.clang"
  },
  "schemaVersion": "3.4.6",
  "updatedAt": "2022-03-29T10:03:44.710Z",
  "devdoc": {
    "kind": "dev",
    "methods": {},
    "version": 1
  },
  "userdoc": {
    "kind": "user",
    "methods": {},
    "version": 1
  }
}