{
  "contractName": "Marketplace",
  "abi": [
    {
      "inputs": [
        {
          "internalType": "uint256",
          "name": "_feePercent",
          "type": "uint256"
        }
      ],
      "stateMutability": "nonpayable",
      "type": "constructor"
    },
    {
      "anonymous": false,
      "inputs": [
        {
          "indexed": false,
          "internalType": "uint256",
          "name": "itemId",
          "type": "uint256"
        },
        {
          "indexed": true,
          "internalType": "address",
          "name": "nft",
          "type": "address"
        },
        {
          "indexed": false,
          "internalType": "uint256",
          "name": "tokenId",
          "type": "uint256"
        },
        {
          "indexed": false,
          "internalType": "uint256",
          "name": "price",
          "type": "uint256"
        },
        {
          "indexed": true,
          "internalType": "address",
          "name": "seller",
          "type": "address"
        }
      ],
      "name": "Auctioned",
      "type": "event"
    },
    {
      "anonymous": false,
      "inputs": [
        {
          "indexed": false,
          "internalType": "uint256",
          "name": "itemId",
          "type": "uint256"
        },
        {
          "indexed": true,
          "internalType": "address",
          "name": "nft",
          "type": "address"
        },
        {
          "indexed": false,
          "internalType": "uint256",
          "name": "amount",
          "type": "uint256"
        },
        {
          "indexed": false,
          "internalType": "uint256",
          "name": "tokenId",
          "type": "uint256"
        },
        {
          "indexed": false,
          "internalType": "uint256",
          "name": "price",
          "type": "uint256"
        },
        {
          "indexed": true,
          "internalType": "address",
          "name": "seller",
          "type": "address"
        }
      ],
      "name": "Auctioned1155",
      "type": "event"
    },
    {
      "anonymous": false,
      "inputs": [
        {
          "indexed": false,
          "internalType": "uint256",
          "name": "itemId",
          "type": "uint256"
        },
        {
          "indexed": true,
          "internalType": "address",
          "name": "nft",
          "type": "address"
        },
        {
          "indexed": false,
          "internalType": "uint256",
          "name": "tokenId",
          "type": "uint256"
        },
        {
          "indexed": false,
          "internalType": "uint256",
          "name": "price",
          "type": "uint256"
        },
        {
          "indexed": true,
          "internalType": "address",
          "name": "seller",
          "type": "address"
        },
        {
          "indexed": true,
          "internalType": "address",
          "name": "buyer",
          "type": "address"
        }
      ],
      "name": "Bought",
      "type": "event"
    },
    {
      "anonymous": false,
      "inputs": [
        {
          "indexed": false,
          "internalType": "uint256",
          "name": "itemId",
          "type": "uint256"
        },
        {
          "indexed": true,
          "internalType": "address",
          "name": "nft",
          "type": "address"
        },
        {
          "indexed": false,
          "internalType": "uint256",
          "name": "amount",
          "type": "uint256"
        },
        {
          "indexed": false,
          "internalType": "uint256",
          "name": "tokenId",
          "type": "uint256"
        },
        {
          "indexed": false,
          "internalType": "uint256",
          "name": "price",
          "type": "uint256"
        },
        {
          "indexed": true,
          "internalType": "address",
          "name": "seller",
          "type": "address"
        },
        {
          "indexed": true,
          "internalType": "address",
          "name": "buyer",
          "type": "address"
        }
      ],
      "name": "Bought1155",
      "type": "event"
    },
    {
      "inputs": [],
      "name": "feeAccount",
      "outputs": [
        {
          "internalType": "address payable",
          "name": "",
          "type": "address"
        }
      ],
      "stateMutability": "view",
      "type": "function",
      "constant": true
    },
    {
      "inputs": [],
      "name": "feePercent",
      "outputs": [
        {
          "internalType": "uint256",
          "name": "",
          "type": "uint256"
        }
      ],
      "stateMutability": "view",
      "type": "function",
      "constant": true
    },
    {
      "inputs": [],
      "name": "itemCount",
      "outputs": [
        {
          "internalType": "uint256",
          "name": "",
          "type": "uint256"
        }
      ],
      "stateMutability": "view",
      "type": "function",
      "constant": true
    },
    {
      "inputs": [],
      "name": "itemCount1155",
      "outputs": [
        {
          "internalType": "uint256",
          "name": "",
          "type": "uint256"
        }
      ],
      "stateMutability": "view",
      "type": "function",
      "constant": true
    },
    {
      "inputs": [
        {
          "internalType": "uint256",
          "name": "",
          "type": "uint256"
        }
      ],
      "name": "items",
      "outputs": [
        {
          "internalType": "uint256",
          "name": "itemid",
          "type": "uint256"
        },
        {
          "internalType": "contract IERC721",
          "name": "nft",
          "type": "address"
        },
        {
          "internalType": "uint256",
          "name": "tokenId",
          "type": "uint256"
        },
        {
          "internalType": "uint256",
          "name": "price",
          "type": "uint256"
        },
        {
          "internalType": "address payable",
          "name": "seller",
          "type": "address"
        },
        {
          "internalType": "bool",
          "name": "sold",
          "type": "bool"
        }
      ],
      "stateMutability": "view",
      "type": "function",
      "constant": true
    },
    {
      "inputs": [
        {
          "internalType": "uint256",
          "name": "",
          "type": "uint256"
        }
      ],
      "name": "items1155",
      "outputs": [
        {
          "internalType": "uint256",
          "name": "itemid",
          "type": "uint256"
        },
        {
          "internalType": "contract IERC1155",
          "name": "nft",
          "type": "address"
        },
        {
          "internalType": "uint256",
          "name": "amount",
          "type": "uint256"
        },
        {
          "internalType": "uint256",
          "name": "tokenId",
          "type": "uint256"
        },
        {
          "internalType": "uint256",
          "name": "price",
          "type": "uint256"
        },
        {
          "internalType": "address payable",
          "name": "seller",
          "type": "address"
        },
        {
          "internalType": "bool",
          "name": "sold",
          "type": "bool"
        }
      ],
      "stateMutability": "view",
      "type": "function",
      "constant": true
    },
    {
      "inputs": [
        {
          "internalType": "bytes4",
          "name": "interfaceId",
          "type": "bytes4"
        }
      ],
      "name": "supportsInterface",
      "outputs": [
        {
          "internalType": "bool",
          "name": "",
          "type": "bool"
        }
      ],
      "stateMutability": "view",
      "type": "function",
      "constant": true
    },
    {
      "inputs": [
        {
          "internalType": "address",
          "name": "operator",
          "type": "address"
        },
        {
          "internalType": "address",
          "name": "from",
          "type": "address"
        },
        {
          "internalType": "uint256",
          "name": "id",
          "type": "uint256"
        },
        {
          "internalType": "uint256",
          "name": "value",
          "type": "uint256"
        },
        {
          "internalType": "bytes",
          "name": "data",
          "type": "bytes"
        }
      ],
      "name": "onERC1155Received",
      "outputs": [
        {
          "internalType": "bytes4",
          "name": "",
          "type": "bytes4"
        }
      ],
      "stateMutability": "nonpayable",
      "type": "function"
    },
    {
      "inputs": [
        {
          "internalType": "address",
          "name": "operator",
          "type": "address"
        },
        {
          "internalType": "address",
          "name": "from",
          "type": "address"
        },
        {
          "internalType": "uint256[]",
          "name": "ids",
          "type": "uint256[]"
        },
        {
          "internalType": "uint256[]",
          "name": "values",
          "type": "uint256[]"
        },
        {
          "internalType": "bytes",
          "name": "data",
          "type": "bytes"
        }
      ],
      "name": "onERC1155BatchReceived",
      "outputs": [
        {
          "internalType": "bytes4",
          "name": "",
          "type": "bytes4"
        }
      ],
      "stateMutability": "nonpayable",
      "type": "function"
    },
    {
      "inputs": [
        {
          "internalType": "contract IERC721",
          "name": "_nft",
          "type": "address"
        },
        {
          "internalType": "uint256",
          "name": "_tokenId",
          "type": "uint256"
        },
        {
          "internalType": "uint256",
          "name": "_price",
          "type": "uint256"
        }
      ],
      "name": "makeItem",
      "outputs": [],
      "stateMutability": "nonpayable",
      "type": "function"
    },
    {
      "inputs": [
        {
          "internalType": "uint256",
          "name": "_itemId",
          "type": "uint256"
        }
      ],
      "name": "purchaseItem",
      "outputs": [],
      "stateMutability": "payable",
      "type": "function",
      "payable": true
    },
    {
      "inputs": [
        {
          "internalType": "contract IERC1155",
          "name": "_nft",
          "type": "address"
        },
        {
          "internalType": "uint256",
          "name": "_tokenId",
          "type": "uint256"
        },
        {
          "internalType": "uint256",
          "name": "_amount",
          "type": "uint256"
        },
        {
          "internalType": "uint256",
          "name": "_price",
          "type": "uint256"
        }
      ],
      "name": "makeItem1155",
      "outputs": [],
      "stateMutability": "nonpayable",
      "type": "function"
    },
    {
      "inputs": [
        {
          "internalType": "uint256",
          "name": "_itemId",
          "type": "uint256"
        },
        {
          "internalType": "uint256",
          "name": "_amount",
          "type": "uint256"
        }
      ],
      "name": "purchaseItem1155",
      "outputs": [],
      "stateMutability": "payable",
      "type": "function",
      "payable": true
    },
    {
      "inputs": [
        {
          "internalType": "uint256",
          "name": "_itemId",
          "type": "uint256"
        }
      ],
      "name": "getTotalPrice",
      "outputs": [
        {
          "internalType": "uint256",
          "name": "",
          "type": "uint256"
        }
      ],
      "stateMutability": "view",
      "type": "function",
      "constant": true
    },
    {
      "inputs": [
        {
          "internalType": "uint256",
          "name": "_itemId",
          "type": "uint256"
        },
        {
          "internalType": "uint256",
          "name": "_amount",
          "type": "uint256"
        }
      ],
      "name": "getTotalPrice1155",
      "outputs": [
        {
          "internalType": "uint256",
          "name": "",
          "type": "uint256"
        }
      ],
      "stateMutability": "view",
      "type": "function",
      "constant": true
    }
  ],
  "bytecode": "0x60c06040523480156200001157600080fd5b50604051620024ad380380620024ad8339818101604052810190620000379190620000c2565b60016000819055503373ffffffffffffffffffffffffffffffffffffffff1660808173ffffffffffffffffffffffffffffffffffffffff16815250508060a0818152505050620000f4565b600080fd5b6000819050919050565b6200009c8162000087565b8114620000a857600080fd5b50565b600081519050620000bc8162000091565b92915050565b600060208284031215620000db57620000da62000082565b5b6000620000eb84828501620000ab565b91505092915050565b60805160a05161237762000136600039600081816107ac0152818161081d0152610df001526000818161078401528181610a6b015261101501526123776000f3fe6080604052600436106100e85760003560e01c80638ec031ef1161008a578063ca7dd37511610059578063ca7dd3751461031a578063d38ea5bf14610357578063f23a6e6114610373578063fa00afc7146103b0576100e8565b80638ec031ef1461023c57806393e37edd14610258578063bc197c811461029b578063bfb231d2146102d8576100e8565b806365e17c9d116100c657806365e17c9d1461017e5780636bc97d19146101a95780636bfb0d01146101e65780637fd6f15c14610211576100e8565b806301ffc9a7146100ed5780630b7fbb1e1461012a5780633a163ddd14610153575b600080fd5b3480156100f957600080fd5b50610114600480360381019061010f91906115cd565b6103d9565b6040516101219190611615565b60405180910390f35b34801561013657600080fd5b50610151600480360381019061014c91906116d6565b610453565b005b34801561015f57600080fd5b5061016861077c565b604051610175919061174c565b60405180910390f35b34801561018a57600080fd5b50610193610782565b6040516101a09190611788565b60405180910390f35b3480156101b557600080fd5b506101d060048036038101906101cb91906117a3565b6107a6565b6040516101dd919061174c565b60405180910390f35b3480156101f257600080fd5b506101fb610815565b604051610208919061174c565b60405180910390f35b34801561021d57600080fd5b5061022661081b565b604051610233919061174c565b60405180910390f35b610256600480360381019061025191906117a3565b61083f565b005b34801561026457600080fd5b5061027f600480360381019061027a91906117e3565b610cba565b604051610292979695949392919061186f565b60405180910390f35b3480156102a757600080fd5b506102c260048036038101906102bd91906119c5565b610d49565b6040516102cf9190611ab0565b60405180910390f35b3480156102e457600080fd5b506102ff60048036038101906102fa91906117e3565b610d61565b60405161031196959493929190611aec565b60405180910390f35b34801561032657600080fd5b50610341600480360381019061033c91906117e3565b610dea565b60405161034e919061174c565b60405180910390f35b610371600480360381019061036c91906117e3565b610e4d565b005b34801561037f57600080fd5b5061039a60048036038101906103959190611b4d565b61121a565b6040516103a79190611ab0565b60405180910390f35b3480156103bc57600080fd5b506103d760048036038101906103d29190611c25565b611230565b005b60007f4e2312e0000000000000000000000000000000000000000000000000000000007bffffffffffffffffffffffffffffffffffffffffffffffffffffffff1916827bffffffffffffffffffffffffffffffffffffffffffffffffffffffff1916148061044c575061044b82611501565b5b9050919050565b600260005403610498576040517f08c379a000000000000000000000000000000000000000000000000000000000815260040161048f90611cd5565b60405180910390fd5b6002600081905550600081116104e3576040517f08c379a00000000000000000000000000000000000000000000000000000000081526004016104da90611d41565b60405180910390fd5b60008211610526576040517f08c379a000000000000000000000000000000000000000000000000000000000815260040161051d90611dad565b60405180910390fd5b6002600081548092919061053990611dfc565b91905055508373ffffffffffffffffffffffffffffffffffffffff1663f242432a333086866040518563ffffffff1660e01b815260040161057d9493929190611eb0565b600060405180830381600087803b15801561059757600080fd5b505af11580156105ab573d6000803e3d6000fd5b505050506040518060e0016040528060025481526020018573ffffffffffffffffffffffffffffffffffffffff1681526020018381526020018481526020018281526020013373ffffffffffffffffffffffffffffffffffffffff168152602001600015158152506004600060025481526020019081526020016000206000820151816000015560208201518160010160006101000a81548173ffffffffffffffffffffffffffffffffffffffff021916908373ffffffffffffffffffffffffffffffffffffffff16021790555060408201518160020155606082015181600301556080820151816004015560a08201518160050160006101000a81548173ffffffffffffffffffffffffffffffffffffffff021916908373ffffffffffffffffffffffffffffffffffffffff16021790555060c08201518160050160146101000a81548160ff0219169083151502179055509050503373ffffffffffffffffffffffffffffffffffffffff168473ffffffffffffffffffffffffffffffffffffffff167f5d7692f80d372fc57f059734f16f23b0befa370e8345f68187e114d3b461020d6002548587866040516107669493929190611f08565b60405180910390a3600160008190555050505050565b60025481565b7f000000000000000000000000000000000000000000000000000000000000000081565b600060647f000000000000000000000000000000000000000000000000000000000000000060646107d79190611f4d565b8360046000878152602001908152602001600020600401546107f99190611fa3565b6108039190611fa3565b61080d919061202c565b905092915050565b60015481565b7f000000000000000000000000000000000000000000000000000000000000000081565b600260005403610884576040517f08c379a000000000000000000000000000000000000000000000000000000000815260040161087b90611cd5565b60405180910390fd5b6002600081905550600061089883836107a6565b905060006004600085815260200190815260200160002090506000841180156108c357506002548411155b610902576040517f08c379a00000000000000000000000000000000000000000000000000000000081526004016108f9906120a9565b60405180910390fd5b600083118015610916575080600201548311155b610955576040517f08c379a000000000000000000000000000000000000000000000000000000000815260040161094c906120a9565b60405180910390fd5b81341015610998576040517f08c379a000000000000000000000000000000000000000000000000000000000815260040161098f9061213b565b60405180910390fd5b8060050160149054906101000a900460ff16156109ea576040517f08c379a00000000000000000000000000000000000000000000000000000000081526004016109e1906121a7565b60405180910390fd5b60008382600401546109fc9190611fa3565b90508160050160009054906101000a900473ffffffffffffffffffffffffffffffffffffffff1673ffffffffffffffffffffffffffffffffffffffff166108fc829081150290604051600060405180830381858888f19350505050158015610a68573d6000803e3d6000fd5b507f000000000000000000000000000000000000000000000000000000000000000073ffffffffffffffffffffffffffffffffffffffff166108fc8285610aaf91906121c7565b9081150290604051600060405180830381858888f19350505050158015610ada573d6000803e3d6000fd5b50838260020154610aeb91906121c7565b8260020181905550600082600201541115610b225760008260050160146101000a81548160ff021916908315150217905550610b40565b60018260050160146101000a81548160ff0219169083151502179055505b8160010160009054906101000a900473ffffffffffffffffffffffffffffffffffffffff1673ffffffffffffffffffffffffffffffffffffffff1663f242432a30338560030154886040518563ffffffff1660e01b8152600401610ba79493929190611eb0565b600060405180830381600087803b158015610bc157600080fd5b505af1158015610bd5573d6000803e3d6000fd5b505050503373ffffffffffffffffffffffffffffffffffffffff168260050160009054906101000a900473ffffffffffffffffffffffffffffffffffffffff1673ffffffffffffffffffffffffffffffffffffffff168360010160009054906101000a900473ffffffffffffffffffffffffffffffffffffffff1673ffffffffffffffffffffffffffffffffffffffff167fb7ee130cd21ae786eaa298e5346cadcac54a99a0d58b55f9849a51fc67161e5f888887600301548860040154604051610ca39493929190611f08565b60405180910390a450505060016000819055505050565b60046020528060005260406000206000915090508060000154908060010160009054906101000a900473ffffffffffffffffffffffffffffffffffffffff16908060020154908060030154908060040154908060050160009054906101000a900473ffffffffffffffffffffffffffffffffffffffff16908060050160149054906101000a900460ff16905087565b600063bc197c8160e01b905098975050505050505050565b60036020528060005260406000206000915090508060000154908060010160009054906101000a900473ffffffffffffffffffffffffffffffffffffffff16908060020154908060030154908060040160009054906101000a900473ffffffffffffffffffffffffffffffffffffffff16908060040160149054906101000a900460ff16905086565b600060647f00000000000000000000000000000000000000000000000000000000000000006064610e1b9190611f4d565b6003600085815260200190815260200160002060030154610e3c9190611fa3565b610e46919061202c565b9050919050565b600260005403610e92576040517f08c379a0000000000000000000000000000000000000000000000000000000008152600401610e8990611cd5565b60405180910390fd5b60026000819055506000610ea582610dea565b90506000600360008481526020019081526020016000209050600083118015610ed057506001548311155b610f0f576040517f08c379a0000000000000000000000000000000000000000000000000000000008152600401610f0690612247565b60405180910390fd5b81341015610f52576040517f08c379a0000000000000000000000000000000000000000000000000000000008152600401610f499061213b565b60405180910390fd5b8060040160149054906101000a900460ff1615610fa4576040517f08c379a0000000000000000000000000000000000000000000000000000000008152600401610f9b906122b3565b60405180910390fd5b8060040160009054906101000a900473ffffffffffffffffffffffffffffffffffffffff1673ffffffffffffffffffffffffffffffffffffffff166108fc82600301549081150290604051600060405180830381858888f19350505050158015611012573d6000803e3d6000fd5b507f000000000000000000000000000000000000000000000000000000000000000073ffffffffffffffffffffffffffffffffffffffff166108fc82600301548461105d91906121c7565b9081150290604051600060405180830381858888f19350505050158015611088573d6000803e3d6000fd5b5060018160040160146101000a81548160ff0219169083151502179055508060010160009054906101000a900473ffffffffffffffffffffffffffffffffffffffff1673ffffffffffffffffffffffffffffffffffffffff166323b872dd303384600201546040518463ffffffff1660e01b815260040161110b939291906122d3565b600060405180830381600087803b15801561112557600080fd5b505af1158015611139573d6000803e3d6000fd5b505050503373ffffffffffffffffffffffffffffffffffffffff168160040160009054906101000a900473ffffffffffffffffffffffffffffffffffffffff1673ffffffffffffffffffffffffffffffffffffffff168260010160009054906101000a900473ffffffffffffffffffffffffffffffffffffffff1673ffffffffffffffffffffffffffffffffffffffff167f8b4c9c8a607d67b321582dd8461041b1dc2ceeca70c8b7f37f8e02095cf2e76d86856002015486600301546040516112059392919061230a565b60405180910390a45050600160008190555050565b600063f23a6e6160e01b90509695505050505050565b600260005403611275576040517f08c379a000000000000000000000000000000000000000000000000000000000815260040161126c90611cd5565b60405180910390fd5b6002600081905550600081116112c0576040517f08c379a00000000000000000000000000000000000000000000000000000000081526004016112b790611d41565b60405180910390fd5b600160008154809291906112d390611dfc565b91905055508273ffffffffffffffffffffffffffffffffffffffff166323b872dd3330856040518463ffffffff1660e01b8152600401611315939291906122d3565b600060405180830381600087803b15801561132f57600080fd5b505af1158015611343573d6000803e3d6000fd5b505050506040518060c0016040528060015481526020018473ffffffffffffffffffffffffffffffffffffffff1681526020018381526020018281526020013373ffffffffffffffffffffffffffffffffffffffff168152602001600015158152506003600060015481526020019081526020016000206000820151816000015560208201518160010160006101000a81548173ffffffffffffffffffffffffffffffffffffffff021916908373ffffffffffffffffffffffffffffffffffffffff160217905550604082015181600201556060820151816003015560808201518160040160006101000a81548173ffffffffffffffffffffffffffffffffffffffff021916908373ffffffffffffffffffffffffffffffffffffffff16021790555060a08201518160040160146101000a81548160ff0219169083151502179055509050503373ffffffffffffffffffffffffffffffffffffffff168373ffffffffffffffffffffffffffffffffffffffff167f33cd723fbb91d85644385c7c895f15f7903a01e3e74cd1f85c3f965e76b88cd160015485856040516114ec9392919061230a565b60405180910390a36001600081905550505050565b60007f01ffc9a7000000000000000000000000000000000000000000000000000000007bffffffffffffffffffffffffffffffffffffffffffffffffffffffff1916827bffffffffffffffffffffffffffffffffffffffffffffffffffffffff1916149050919050565b600080fd5b600080fd5b60007fffffffff0000000000000000000000000000000000000000000000000000000082169050919050565b6115aa81611575565b81146115b557600080fd5b50565b6000813590506115c7816115a1565b92915050565b6000602082840312156115e3576115e261156b565b5b60006115f1848285016115b8565b91505092915050565b60008115159050919050565b61160f816115fa565b82525050565b600060208201905061162a6000830184611606565b92915050565b600073ffffffffffffffffffffffffffffffffffffffff82169050919050565b600061165b82611630565b9050919050565b600061166d82611650565b9050919050565b61167d81611662565b811461168857600080fd5b50565b60008135905061169a81611674565b92915050565b6000819050919050565b6116b3816116a0565b81146116be57600080fd5b50565b6000813590506116d0816116aa565b92915050565b600080600080608085870312156116f0576116ef61156b565b5b60006116fe8782880161168b565b945050602061170f878288016116c1565b9350506040611720878288016116c1565b9250506060611731878288016116c1565b91505092959194509250565b611746816116a0565b82525050565b6000602082019050611761600083018461173d565b92915050565b600061177282611630565b9050919050565b61178281611767565b82525050565b600060208201905061179d6000830184611779565b92915050565b600080604083850312156117ba576117b961156b565b5b60006117c8858286016116c1565b92505060206117d9858286016116c1565b9150509250929050565b6000602082840312156117f9576117f861156b565b5b6000611807848285016116c1565b91505092915050565b6000819050919050565b600061183561183061182b84611630565b611810565b611630565b9050919050565b60006118478261181a565b9050919050565b60006118598261183c565b9050919050565b6118698161184e565b82525050565b600060e082019050611884600083018a61173d565b6118916020830189611860565b61189e604083018861173d565b6118ab606083018761173d565b6118b8608083018661173d565b6118c560a0830185611779565b6118d260c0830184611606565b98975050505050505050565b6118e781611650565b81146118f257600080fd5b50565b600081359050611904816118de565b92915050565b600080fd5b600080fd5b600080fd5b60008083601f84011261192f5761192e61190a565b5b8235905067ffffffffffffffff81111561194c5761194b61190f565b5b60208301915083602082028301111561196857611967611914565b5b9250929050565b60008083601f8401126119855761198461190a565b5b8235905067ffffffffffffffff8111156119a2576119a161190f565b5b6020830191508360018202830111156119be576119bd611914565b5b9250929050565b60008060008060008060008060a0898b0312156119e5576119e461156b565b5b60006119f38b828c016118f5565b9850506020611a048b828c016118f5565b975050604089013567ffffffffffffffff811115611a2557611a24611570565b5b611a318b828c01611919565b9650965050606089013567ffffffffffffffff811115611a5457611a53611570565b5b611a608b828c01611919565b9450945050608089013567ffffffffffffffff811115611a8357611a82611570565b5b611a8f8b828c0161196f565b92509250509295985092959890939650565b611aaa81611575565b82525050565b6000602082019050611ac56000830184611aa1565b92915050565b6000611ad68261183c565b9050919050565b611ae681611acb565b82525050565b600060c082019050611b01600083018961173d565b611b0e6020830188611add565b611b1b604083018761173d565b611b28606083018661173d565b611b356080830185611779565b611b4260a0830184611606565b979650505050505050565b60008060008060008060a08789031215611b6a57611b6961156b565b5b6000611b7889828a016118f5565b9650506020611b8989828a016118f5565b9550506040611b9a89828a016116c1565b9450506060611bab89828a016116c1565b935050608087013567ffffffffffffffff811115611bcc57611bcb611570565b5b611bd889828a0161196f565b92509250509295509295509295565b6000611bf282611650565b9050919050565b611c0281611be7565b8114611c0d57600080fd5b50565b600081359050611c1f81611bf9565b92915050565b600080600060608486031215611c3e57611c3d61156b565b5b6000611c4c86828701611c10565b9350506020611c5d868287016116c1565b9250506040611c6e868287016116c1565b9150509250925092565b600082825260208201905092915050565b7f5265656e7472616e637947756172643a207265656e7472616e742063616c6c00600082015250565b6000611cbf601f83611c78565b9150611cca82611c89565b602082019050919050565b60006020820190508181036000830152611cee81611cb2565b9050919050565b7f5072696365206d7573742062652067726561746572207468616e207a65726f00600082015250565b6000611d2b601f83611c78565b9150611d3682611cf5565b602082019050919050565b60006020820190508181036000830152611d5a81611d1e565b9050919050565b7f416d6f756e74206d7573742062652067726561746572207468616e207a65726f600082015250565b6000611d97602083611c78565b9150611da282611d61565b602082019050919050565b60006020820190508181036000830152611dc681611d8a565b9050919050565b7f4e487b7100000000000000000000000000000000000000000000000000000000600052601160045260246000fd5b6000611e07826116a0565b91507fffffffffffffffffffffffffffffffffffffffffffffffffffffffffffffffff8203611e3957611e38611dcd565b5b600182019050919050565b611e4d81611650565b82525050565b600082825260208201905092915050565b7f3078300000000000000000000000000000000000000000000000000000000000600082015250565b6000611e9a600383611e53565b9150611ea582611e64565b602082019050919050565b600060a082019050611ec56000830187611e44565b611ed26020830186611e44565b611edf604083018561173d565b611eec606083018461173d565b8181036080830152611efd81611e8d565b905095945050505050565b6000608082019050611f1d600083018761173d565b611f2a602083018661173d565b611f37604083018561173d565b611f44606083018461173d565b95945050505050565b6000611f58826116a0565b9150611f63836116a0565b9250827fffffffffffffffffffffffffffffffffffffffffffffffffffffffffffffffff03821115611f9857611f97611dcd565b5b828201905092915050565b6000611fae826116a0565b9150611fb9836116a0565b9250817fffffffffffffffffffffffffffffffffffffffffffffffffffffffffffffffff0483118215151615611ff257611ff1611dcd565b5b828202905092915050565b7f4e487b7100000000000000000000000000000000000000000000000000000000600052601260045260246000fd5b6000612037826116a0565b9150612042836116a0565b92508261205257612051611ffd565b5b828204905092915050565b7f546865204e46543131353520446f65736e2774204578697374732e2e00000000600082015250565b6000612093601c83611c78565b915061209e8261205d565b602082019050919050565b600060208201905081810360008301526120c281612086565b9050919050565b7f4e6f7420456e6f75676820416d6f756e7420466f7220546865205472616e736160008201527f6374696f6e000000000000000000000000000000000000000000000000000000602082015250565b6000612125602583611c78565b9150612130826120c9565b604082019050919050565b6000602082019050818103600083015261215481612118565b9050919050565b7f54686973204e46543131353520697320616c726561647920536f6c6400000000600082015250565b6000612191601c83611c78565b915061219c8261215b565b602082019050919050565b600060208201905081810360008301526121c081612184565b9050919050565b60006121d2826116a0565b91506121dd836116a0565b9250828210156121f0576121ef611dcd565b5b828203905092915050565b7f546865204e465420446f65736e2774204578697374732e2e0000000000000000600082015250565b6000612231601883611c78565b915061223c826121fb565b602082019050919050565b6000602082019050818103600083015261226081612224565b9050919050565b7f54686973204e465420697320616c726561647920536f6c640000000000000000600082015250565b600061229d601883611c78565b91506122a882612267565b602082019050919050565b600060208201905081810360008301526122cc81612290565b9050919050565b60006060820190506122e86000830186611e44565b6122f56020830185611e44565b612302604083018461173d565b949350505050565b600060608201905061231f600083018661173d565b61232c602083018561173d565b612339604083018461173d565b94935050505056fea2646970667358221220f3c4a37ddce41b45db81d460d94c9842bfd8178ce6c8f8194bed1d971cad2d6a64736f6c634300080d0033",
  "immutableReferences": {
    "3071": [
      {
        "length": 32,
        "start": 1924
      },
      {
        "length": 32,
        "start": 2667
      },
      {
        "length": 32,
        "start": 4117
      }
    ],
    "3073": [
      {
        "length": 32,
        "start": 1964
      },
      {
        "length": 32,
        "start": 2077
      },
      {
        "length": 32,
        "start": 3568
      }
    ]
  },
  "source": "// SPDX-License-Identifier: MIT\npragma solidity >=0.4.22 <0.9.0;\n\nimport \"@openzeppelin/contracts/token/ERC721/extensions/ERC721URIStorage.sol\";\n\nimport \"@openzeppelin/contracts/token/ERC1155/ERC1155.sol\";\nimport {ERC1155Receiver} from \"@openzeppelin/contracts/token/ERC1155/utils/ERC1155Receiver.sol\";\nimport \"@openzeppelin/contracts/security/ReentrancyGuard.sol\";\n\ncontract Marketplace is ERC1155Receiver, ReentrancyGuard {\n    address payable public immutable feeAccount; //the account that receives fee for the transaction made. i.e the owner.\n    uint256 public immutable feePercent; // the fee commission percentage on sales\n    uint256 public itemCount;\n    uint256 public itemCount1155;\n\n    constructor(uint256 _feePercent) {\n        feeAccount = payable(msg.sender);\n        feePercent = _feePercent;\n    }\n\n    function onERC1155Received(\n        address operator,\n        address from,\n        uint256 id,\n        uint256 value,\n        bytes calldata data\n    ) external override returns (bytes4) {\n        return this.onERC1155Received.selector;\n    }\n\n    function onERC1155BatchReceived(\n        address operator,\n        address from,\n        uint256[] calldata ids,\n        uint256[] calldata values,\n        bytes calldata data\n    ) external override returns (bytes4) {\n        return this.onERC1155BatchReceived.selector;\n    }\n\n    struct Item {\n        uint256 itemid;\n        IERC721 nft; // Instance Of NFT contract associated with it.\n        uint256 tokenId;\n        uint256 price;\n        address payable seller;\n        bool sold;\n    }\n    struct Item1155 {\n        uint256 itemid;\n        IERC1155 nft; // Instance Of NFT contract associated with it.\n        uint256 amount;\n        uint256 tokenId;\n        uint256 price;\n        address payable seller;\n        bool sold;\n    }\n\n    mapping(uint256 => Item) public items;\n    mapping(uint256 => Item1155) public items1155;\n\n    event Auctioned(\n        uint256 itemId,\n        address indexed nft,\n        uint256 tokenId,\n        uint256 price,\n        address indexed seller\n    );\n    event Auctioned1155(\n        uint256 itemId,\n        address indexed nft,\n        uint256 amount,\n        uint256 tokenId,\n        uint256 price,\n        address indexed seller\n    );\n\n    event Bought(\n        uint256 itemId,\n        address indexed nft,\n        uint256 tokenId,\n        uint256 price,\n        address indexed seller,\n        address indexed buyer\n    );\n    event Bought1155(\n        uint256 itemId,\n        address indexed nft,\n        uint256 amount,\n        uint256 tokenId,\n        uint256 price,\n        address indexed seller,\n        address indexed buyer\n    );\n\n    //Function to Auction An NFT.\n    function makeItem(\n        IERC721 _nft,\n        uint256 _tokenId,\n        uint256 _price\n    ) external nonReentrant {\n        require(_price > 0, \"Price must be greater than zero\");\n\n        //Number of items increased.\n        itemCount++;\n\n        //transfer nft to Marketplace.\n        _nft.transferFrom(msg.sender, address(this), _tokenId);\n\n        //Adding New Item to The Available Items List.\n        items[itemCount] = Item(\n            itemCount,\n            _nft,\n            _tokenId,\n            _price,\n            payable(msg.sender),\n            false\n        );\n        //BroadCasting the Auctioned Event For New NFT.\n        emit Auctioned(itemCount, address(_nft), _tokenId, _price, msg.sender);\n    }\n\n    //Function to Buy an NFT.\n    function purchaseItem(uint256 _itemId) external payable nonReentrant {\n        //Getting the totalprice\n        uint256 totalPrice = getTotalPrice(_itemId);\n        Item storage item = items[_itemId]; // Item storage defines the current storage Item; not new Copy oF Item struct.\n        //Setting up restrictions\n        require(\n            _itemId > 0 && _itemId <= itemCount,\n            \"The NFT Doesn't Exists..\"\n        );\n        require(\n            msg.value >= totalPrice,\n            \"Not Enough Amount For The Transaction\"\n        );\n        require(!item.sold, \"This NFT is already Sold\");\n        // Transfer coins to Seller and ..\n        item.seller.transfer(item.price);\n        //Transfer Commission to The MarketPlace\n        feeAccount.transfer(totalPrice - item.price);\n        //Update the Sold NFT Status.\n        item.sold = true;\n        //Tranfer the NFT to the Buyer\n        item.nft.transferFrom(address(this), msg.sender, item.tokenId);\n        //Emittig the Event\n        emit Bought(\n            _itemId,\n            address(item.nft),\n            item.tokenId,\n            item.price,\n            item.seller,\n            msg.sender\n        );\n    }\n\n    //Funtion to Auction an NFT1155.\n    function makeItem1155(\n        IERC1155 _nft,\n        uint256 _tokenId,\n        uint256 _amount,\n        uint256 _price\n    ) external nonReentrant {\n        require(_price > 0, \"Price must be greater than zero\");\n        require(_amount > 0, \"Amount must be greater than zero\");\n\n        //Number of items increased.\n        itemCount1155++;\n\n        //transfer nft to Marketplace.\n        _nft.safeTransferFrom(\n            msg.sender, //\"from\" address -> must approve the -> \"to\" address...\n            address(this),\n            _tokenId,\n            _amount,\n            \"0x0\"\n        );\n\n        //Adding New Item to The Available Items List.\n        items1155[itemCount1155] = Item1155(\n            itemCount1155,\n            _nft,\n            _amount,\n            _tokenId,\n            _price,\n            payable(msg.sender),\n            false\n        );\n        //BroadCasting the Auctioned Event For New NFT.\n        emit Auctioned1155(\n            itemCount1155,\n            address(_nft),\n            _amount,\n            _tokenId,\n            _price,\n            msg.sender\n        );\n    }\n\n    //Function to Buy NFT1155\n    function purchaseItem1155(uint256 _itemId, uint256 _amount)\n        external\n        payable\n        nonReentrant\n    {\n        //Getting the totalprice\n        uint256 totalPrice = getTotalPrice1155(_itemId, _amount);\n        Item1155 storage item = items1155[_itemId]; // Item storage defines the current storage Item; not new Copy oF Item struct.\n        //Setting up restrictions\n        require(\n            _itemId > 0 && _itemId <= itemCount1155,\n            \"The NFT1155 Doesn't Exists..\"\n        );\n        require(\n            _amount > 0 && _amount <= item.amount,\n            \"The NFT1155 Doesn't Exists..\"\n        );\n        require(\n            msg.value >= totalPrice,\n            \"Not Enough Amount For The Transaction\"\n        );\n        require(!item.sold, \"This NFT1155 is already Sold\");\n        // Transfer coins to Seller and ..\n        uint256 itemPrice = item.price * _amount;\n        item.seller.transfer(itemPrice);\n        //Transfer Commission to The MarketPlace\n        feeAccount.transfer(totalPrice - itemPrice);\n        //Update the Sold NFT Status.\n        item.amount = item.amount - _amount; //updating the no. of available NFTs for the particular token Id.\n        if (item.amount > 0) {\n            item.sold = false;\n        } else {\n            item.sold = true;\n        }\n\n        //Tranfer the NFT to the Buyer\n        item.nft.safeTransferFrom(\n            address(this),\n            msg.sender,\n            item.tokenId,\n            _amount,\n            \"0x0\"\n        );\n        //Emittig the Event\n        emit Bought1155(\n            _itemId,\n            address(item.nft),\n            _amount,\n            item.tokenId,\n            item.price,\n            item.seller,\n            msg.sender\n        );\n    }\n\n    //Evaluating the Total Price of NFT Including the Fee for Transaction\n    function getTotalPrice(uint256 _itemId) public view returns (uint256) {\n        return ((items[_itemId].price * (100 + feePercent)) / 100);\n    }\n\n    //Evaluating the Total Price of NFT1155 Including the Fee for Transaction\n    function getTotalPrice1155(uint256 _itemId, uint256 _amount)\n        public\n        view\n        returns (uint256)\n    {\n        return ( ( (items1155[_itemId].price * _amount) * (100 + feePercent) ) / 100);\n    }\n}\n",
  "sourcePath": "/media/arya/_dev_sda3/blockChainProjects/nft-marketplace/my-nft-marketplace/src/contracts/Marketplace.sol",
  "compiler": {
    "name": "solc",
    "version": "0.8.13+commit.abaa5c0e.Emscripten.clang"
  },
  "schemaVersion": "3.4.6",
  "updatedAt": "2022-04-06T06:27:28.320Z",
  "networkType": "ethereum",
  "devdoc": {
    "kind": "dev",
    "methods": {
      "onERC1155BatchReceived(address,address,uint256[],uint256[],bytes)": {
        "details": "Handles the receipt of a multiple ERC1155 token types. This function is called at the end of a `safeBatchTransferFrom` after the balances have been updated. NOTE: To accept the transfer(s), this must return `bytes4(keccak256(\"onERC1155BatchReceived(address,address,uint256[],uint256[],bytes)\"))` (i.e. 0xbc197c81, or its own function selector).",
        "params": {
          "data": "Additional data with no specified format",
          "from": "The address which previously owned the token",
          "ids": "An array containing ids of each token being transferred (order and length must match values array)",
          "operator": "The address which initiated the batch transfer (i.e. msg.sender)",
          "values": "An array containing amounts of each token being transferred (order and length must match ids array)"
        },
        "returns": {
          "_0": "`bytes4(keccak256(\"onERC1155BatchReceived(address,address,uint256[],uint256[],bytes)\"))` if transfer is allowed"
        }
      },
      "onERC1155Received(address,address,uint256,uint256,bytes)": {
        "details": "Handles the receipt of a single ERC1155 token type. This function is called at the end of a `safeTransferFrom` after the balance has been updated. NOTE: To accept the transfer, this must return `bytes4(keccak256(\"onERC1155Received(address,address,uint256,uint256,bytes)\"))` (i.e. 0xf23a6e61, or its own function selector).",
        "params": {
          "data": "Additional data with no specified format",
          "from": "The address which previously owned the token",
          "id": "The ID of the token being transferred",
          "operator": "The address which initiated the transfer (i.e. msg.sender)",
          "value": "The amount of tokens being transferred"
        },
        "returns": {
          "_0": "`bytes4(keccak256(\"onERC1155Received(address,address,uint256,uint256,bytes)\"))` if transfer is allowed"
        }
      },
      "supportsInterface(bytes4)": {
        "details": "See {IERC165-supportsInterface}."
      }
    },
    "version": 1
  },
  "userdoc": {
    "kind": "user",
    "methods": {},
    "version": 1
  }
}