{
  "contractName": "NFT1155",
  "abi": [
    {
      "inputs": [],
      "stateMutability": "nonpayable",
      "type": "constructor"
    },
    {
      "anonymous": false,
      "inputs": [
        {
          "indexed": true,
          "internalType": "address",
          "name": "account",
          "type": "address"
        },
        {
          "indexed": true,
          "internalType": "address",
          "name": "operator",
          "type": "address"
        },
        {
          "indexed": false,
          "internalType": "bool",
          "name": "approved",
          "type": "bool"
        }
      ],
      "name": "ApprovalForAll",
      "type": "event"
    },
    {
      "anonymous": false,
      "inputs": [
        {
          "indexed": true,
          "internalType": "address",
          "name": "previousOwner",
          "type": "address"
        },
        {
          "indexed": true,
          "internalType": "address",
          "name": "newOwner",
          "type": "address"
        }
      ],
      "name": "OwnershipTransferred",
      "type": "event"
    },
    {
      "anonymous": false,
      "inputs": [
        {
          "indexed": true,
          "internalType": "address",
          "name": "operator",
          "type": "address"
        },
        {
          "indexed": true,
          "internalType": "address",
          "name": "from",
          "type": "address"
        },
        {
          "indexed": true,
          "internalType": "address",
          "name": "to",
          "type": "address"
        },
        {
          "indexed": false,
          "internalType": "uint256[]",
          "name": "ids",
          "type": "uint256[]"
        },
        {
          "indexed": false,
          "internalType": "uint256[]",
          "name": "values",
          "type": "uint256[]"
        }
      ],
      "name": "TransferBatch",
      "type": "event"
    },
    {
      "anonymous": false,
      "inputs": [
        {
          "indexed": true,
          "internalType": "address",
          "name": "operator",
          "type": "address"
        },
        {
          "indexed": true,
          "internalType": "address",
          "name": "from",
          "type": "address"
        },
        {
          "indexed": true,
          "internalType": "address",
          "name": "to",
          "type": "address"
        },
        {
          "indexed": false,
          "internalType": "uint256",
          "name": "id",
          "type": "uint256"
        },
        {
          "indexed": false,
          "internalType": "uint256",
          "name": "value",
          "type": "uint256"
        }
      ],
      "name": "TransferSingle",
      "type": "event"
    },
    {
      "anonymous": false,
      "inputs": [
        {
          "indexed": false,
          "internalType": "string",
          "name": "value",
          "type": "string"
        },
        {
          "indexed": true,
          "internalType": "uint256",
          "name": "id",
          "type": "uint256"
        }
      ],
      "name": "URI",
      "type": "event"
    },
    {
      "inputs": [
        {
          "internalType": "address",
          "name": "account",
          "type": "address"
        },
        {
          "internalType": "uint256",
          "name": "id",
          "type": "uint256"
        }
      ],
      "name": "balanceOf",
      "outputs": [
        {
          "internalType": "uint256",
          "name": "",
          "type": "uint256"
        }
      ],
      "stateMutability": "view",
      "type": "function",
      "constant": true
    },
    {
      "inputs": [
        {
          "internalType": "address[]",
          "name": "accounts",
          "type": "address[]"
        },
        {
          "internalType": "uint256[]",
          "name": "ids",
          "type": "uint256[]"
        }
      ],
      "name": "balanceOfBatch",
      "outputs": [
        {
          "internalType": "uint256[]",
          "name": "",
          "type": "uint256[]"
        }
      ],
      "stateMutability": "view",
      "type": "function",
      "constant": true
    },
    {
      "inputs": [
        {
          "internalType": "address",
          "name": "account",
          "type": "address"
        },
        {
          "internalType": "address",
          "name": "operator",
          "type": "address"
        }
      ],
      "name": "isApprovedForAll",
      "outputs": [
        {
          "internalType": "bool",
          "name": "",
          "type": "bool"
        }
      ],
      "stateMutability": "view",
      "type": "function",
      "constant": true
    },
    {
      "inputs": [],
      "name": "owner",
      "outputs": [
        {
          "internalType": "address",
          "name": "",
          "type": "address"
        }
      ],
      "stateMutability": "view",
      "type": "function",
      "constant": true
    },
    {
      "inputs": [],
      "name": "renounceOwnership",
      "outputs": [],
      "stateMutability": "nonpayable",
      "type": "function"
    },
    {
      "inputs": [
        {
          "internalType": "address",
          "name": "from",
          "type": "address"
        },
        {
          "internalType": "address",
          "name": "to",
          "type": "address"
        },
        {
          "internalType": "uint256[]",
          "name": "ids",
          "type": "uint256[]"
        },
        {
          "internalType": "uint256[]",
          "name": "amounts",
          "type": "uint256[]"
        },
        {
          "internalType": "bytes",
          "name": "data",
          "type": "bytes"
        }
      ],
      "name": "safeBatchTransferFrom",
      "outputs": [],
      "stateMutability": "nonpayable",
      "type": "function"
    },
    {
      "inputs": [
        {
          "internalType": "address",
          "name": "from",
          "type": "address"
        },
        {
          "internalType": "address",
          "name": "to",
          "type": "address"
        },
        {
          "internalType": "uint256",
          "name": "id",
          "type": "uint256"
        },
        {
          "internalType": "uint256",
          "name": "amount",
          "type": "uint256"
        },
        {
          "internalType": "bytes",
          "name": "data",
          "type": "bytes"
        }
      ],
      "name": "safeTransferFrom",
      "outputs": [],
      "stateMutability": "nonpayable",
      "type": "function"
    },
    {
      "inputs": [
        {
          "internalType": "address",
          "name": "operator",
          "type": "address"
        },
        {
          "internalType": "bool",
          "name": "approved",
          "type": "bool"
        }
      ],
      "name": "setApprovalForAll",
      "outputs": [],
      "stateMutability": "nonpayable",
      "type": "function"
    },
    {
      "inputs": [
        {
          "internalType": "bytes4",
          "name": "interfaceId",
          "type": "bytes4"
        }
      ],
      "name": "supportsInterface",
      "outputs": [
        {
          "internalType": "bool",
          "name": "",
          "type": "bool"
        }
      ],
      "stateMutability": "view",
      "type": "function",
      "constant": true
    },
    {
      "inputs": [],
      "name": "tokenCount",
      "outputs": [
        {
          "internalType": "uint256",
          "name": "",
          "type": "uint256"
        }
      ],
      "stateMutability": "view",
      "type": "function",
      "constant": true
    },
    {
      "inputs": [
        {
          "internalType": "uint256",
          "name": "",
          "type": "uint256"
        }
      ],
      "name": "tokenURIs",
      "outputs": [
        {
          "internalType": "string",
          "name": "URI",
          "type": "string"
        }
      ],
      "stateMutability": "view",
      "type": "function",
      "constant": true
    },
    {
      "inputs": [
        {
          "internalType": "address",
          "name": "newOwner",
          "type": "address"
        }
      ],
      "name": "transferOwnership",
      "outputs": [],
      "stateMutability": "nonpayable",
      "type": "function"
    },
    {
      "inputs": [
        {
          "internalType": "uint256",
          "name": "",
          "type": "uint256"
        }
      ],
      "name": "uri",
      "outputs": [
        {
          "internalType": "string",
          "name": "",
          "type": "string"
        }
      ],
      "stateMutability": "view",
      "type": "function",
      "constant": true
    },
    {
      "inputs": [
        {
          "internalType": "string",
          "name": "newuri",
          "type": "string"
        }
      ],
      "name": "setURI",
      "outputs": [],
      "stateMutability": "nonpayable",
      "type": "function"
    },
    {
      "inputs": [
        {
          "internalType": "uint256",
          "name": "_amount",
          "type": "uint256"
        },
        {
          "internalType": "string",
          "name": "_tokenURI",
          "type": "string"
        }
      ],
      "name": "mint",
      "outputs": [
        {
          "internalType": "uint256",
          "name": "",
          "type": "uint256"
        }
      ],
      "stateMutability": "nonpayable",
      "type": "function"
    }
  ],
  "bytecode": "0x60806040523480156200001157600080fd5b506040518060200160405280600081525062000033816200005a60201b60201c565b5062000054620000486200007660201b60201c565b6200007e60201b60201c565b62000258565b80600290805190602001906200007292919062000144565b5050565b600033905090565b6000600360009054906101000a900473ffffffffffffffffffffffffffffffffffffffff16905081600360006101000a81548173ffffffffffffffffffffffffffffffffffffffff021916908373ffffffffffffffffffffffffffffffffffffffff1602179055508173ffffffffffffffffffffffffffffffffffffffff168173ffffffffffffffffffffffffffffffffffffffff167f8be0079c531659141344cd1fd0a4f28419497f9722a3daafe3b4186f6b6457e060405160405180910390a35050565b828054620001529062000223565b90600052602060002090601f016020900481019282620001765760008555620001c2565b82601f106200019157805160ff1916838001178555620001c2565b82800160010185558215620001c2579182015b82811115620001c1578251825591602001919060010190620001a4565b5b509050620001d19190620001d5565b5090565b5b80821115620001f0576000816000905550600101620001d6565b5090565b7f4e487b7100000000000000000000000000000000000000000000000000000000600052602260045260246000fd5b600060028204905060018216806200023c57607f821691505b602082108103620002525762000251620001f4565b5b50919050565b61311f80620002686000396000f3fe608060405234801561001057600080fd5b50600436106100f45760003560e01c8063715018a611610097578063a22cb46511610066578063a22cb46514610297578063e985e9c5146102b3578063f242432a146102e3578063f2fde38b146102ff576100f4565b8063715018a61461022157806377097fc81461022b5780638da5cb5b1461025b5780639f181b5e14610279576100f4565b80630e89341c116100d35780630e89341c146101755780632eb2c2d6146101a55780634e1273f4146101c15780636c8b703f146101f1576100f4565b8062fdd58e146100f957806301ffc9a71461012957806302fe530514610159575b600080fd5b610113600480360381019061010e9190611b91565b61031b565b6040516101209190611be0565b60405180910390f35b610143600480360381019061013e9190611c53565b6103e3565b6040516101509190611c9b565b60405180910390f35b610173600480360381019061016e9190611dfc565b6104c5565b005b61018f600480360381019061018a9190611e45565b61054d565b60405161019c9190611efa565b60405180910390f35b6101bf60048036038101906101ba9190612085565b6105e1565b005b6101db60048036038101906101d69190612217565b610682565b6040516101e8919061234d565b60405180910390f35b61020b60048036038101906102069190611e45565b61079b565b6040516102189190611efa565b60405180910390f35b610229610841565b005b6102456004803603810190610240919061236f565b6108c9565b6040516102529190611be0565b60405180910390f35b61026361099a565b60405161027091906123da565b60405180910390f35b6102816109c4565b60405161028e9190611be0565b60405180910390f35b6102b160048036038101906102ac9190612421565b6109ca565b005b6102cd60048036038101906102c89190612461565b6109e0565b6040516102da9190611c9b565b60405180910390f35b6102fd60048036038101906102f891906124a1565b610a74565b005b61031960048036038101906103149190612538565b610b15565b005b60008073ffffffffffffffffffffffffffffffffffffffff168373ffffffffffffffffffffffffffffffffffffffff160361038b576040517f08c379a0000000000000000000000000000000000000000000000000000000008152600401610382906125d7565b60405180910390fd5b60008083815260200190815260200160002060008473ffffffffffffffffffffffffffffffffffffffff1673ffffffffffffffffffffffffffffffffffffffff16815260200190815260200160002054905092915050565b60007fd9b67a26000000000000000000000000000000000000000000000000000000007bffffffffffffffffffffffffffffffffffffffffffffffffffffffff1916827bffffffffffffffffffffffffffffffffffffffffffffffffffffffff191614806104ae57507f0e89341c000000000000000000000000000000000000000000000000000000007bffffffffffffffffffffffffffffffffffffffffffffffffffffffff1916827bffffffffffffffffffffffffffffffffffffffffffffffffffffffff1916145b806104be57506104bd82610c0c565b5b9050919050565b6104cd610c76565b73ffffffffffffffffffffffffffffffffffffffff166104eb61099a565b73ffffffffffffffffffffffffffffffffffffffff1614610541576040517f08c379a000000000000000000000000000000000000000000000000000000000815260040161053890612643565b60405180910390fd5b61054a81610c7e565b50565b60606002805461055c90612692565b80601f016020809104026020016040519081016040528092919081815260200182805461058890612692565b80156105d55780601f106105aa576101008083540402835291602001916105d5565b820191906000526020600020905b8154815290600101906020018083116105b857829003601f168201915b50505050509050919050565b6105e9610c76565b73ffffffffffffffffffffffffffffffffffffffff168573ffffffffffffffffffffffffffffffffffffffff16148061062f575061062e85610629610c76565b6109e0565b5b61066e576040517f08c379a000000000000000000000000000000000000000000000000000000000815260040161066590612735565b60405180910390fd5b61067b8585858585610c98565b5050505050565b606081518351146106c8576040517f08c379a00000000000000000000000000000000000000000000000000000000081526004016106bf906127c7565b60405180910390fd5b6000835167ffffffffffffffff8111156106e5576106e4611cd1565b5b6040519080825280602002602001820160405280156107135781602001602082028036833780820191505090505b50905060005b845181101561079057610760858281518110610738576107376127e7565b5b6020026020010151858381518110610753576107526127e7565b5b602002602001015161031b565b828281518110610773576107726127e7565b5b6020026020010181815250508061078990612845565b9050610719565b508091505092915050565b60056020528060005260406000206000915090508060000180546107be90612692565b80601f01602080910402602001604051908101604052809291908181526020018280546107ea90612692565b80156108375780601f1061080c57610100808354040283529160200191610837565b820191906000526020600020905b81548152906001019060200180831161081a57829003601f168201915b5050505050905081565b610849610c76565b73ffffffffffffffffffffffffffffffffffffffff1661086761099a565b73ffffffffffffffffffffffffffffffffffffffff16146108bd576040517f08c379a00000000000000000000000000000000000000000000000000000000081526004016108b490612643565b60405180910390fd5b6108c76000610fab565b565b600080831161090d576040517f08c379a0000000000000000000000000000000000000000000000000000000008152600401610904906128d9565b60405180910390fd5b6004600081548092919061092090612845565b919050555061092e82610c7e565b604051806020016040528083815250600560006004548152602001908152602001600020600082015181600001908051906020019061096e929190611a46565b5090505061098f336004548560405180602001604052806000815250611071565b600454905092915050565b6000600360009054906101000a900473ffffffffffffffffffffffffffffffffffffffff16905090565b60045481565b6109dc6109d5610c76565b8383611206565b5050565b6000600160008473ffffffffffffffffffffffffffffffffffffffff1673ffffffffffffffffffffffffffffffffffffffff16815260200190815260200160002060008373ffffffffffffffffffffffffffffffffffffffff1673ffffffffffffffffffffffffffffffffffffffff16815260200190815260200160002060009054906101000a900460ff16905092915050565b610a7c610c76565b73ffffffffffffffffffffffffffffffffffffffff168573ffffffffffffffffffffffffffffffffffffffff161480610ac25750610ac185610abc610c76565b6109e0565b5b610b01576040517f08c379a0000000000000000000000000000000000000000000000000000000008152600401610af89061296b565b60405180910390fd5b610b0e8585858585611372565b5050505050565b610b1d610c76565b73ffffffffffffffffffffffffffffffffffffffff16610b3b61099a565b73ffffffffffffffffffffffffffffffffffffffff1614610b91576040517f08c379a0000000000000000000000000000000000000000000000000000000008152600401610b8890612643565b60405180910390fd5b600073ffffffffffffffffffffffffffffffffffffffff168173ffffffffffffffffffffffffffffffffffffffff1603610c00576040517f08c379a0000000000000000000000000000000000000000000000000000000008152600401610bf7906129fd565b60405180910390fd5b610c0981610fab565b50565b60007f01ffc9a7000000000000000000000000000000000000000000000000000000007bffffffffffffffffffffffffffffffffffffffffffffffffffffffff1916827bffffffffffffffffffffffffffffffffffffffffffffffffffffffff1916149050919050565b600033905090565b8060029080519060200190610c94929190611a46565b5050565b8151835114610cdc576040517f08c379a0000000000000000000000000000000000000000000000000000000008152600401610cd390612a8f565b60405180910390fd5b600073ffffffffffffffffffffffffffffffffffffffff168473ffffffffffffffffffffffffffffffffffffffff1603610d4b576040517f08c379a0000000000000000000000000000000000000000000000000000000008152600401610d4290612b21565b60405180910390fd5b6000610d55610c76565b9050610d658187878787876115f3565b60005b8451811015610f16576000858281518110610d8657610d856127e7565b5b602002602001015190506000858381518110610da557610da46127e7565b5b60200260200101519050600080600084815260200190815260200160002060008b73ffffffffffffffffffffffffffffffffffffffff1673ffffffffffffffffffffffffffffffffffffffff16815260200190815260200160002054905081811015610e46576040517f08c379a0000000000000000000000000000000000000000000000000000000008152600401610e3d90612bb3565b60405180910390fd5b81810360008085815260200190815260200160002060008c73ffffffffffffffffffffffffffffffffffffffff1673ffffffffffffffffffffffffffffffffffffffff168152602001908152602001600020819055508160008085815260200190815260200160002060008b73ffffffffffffffffffffffffffffffffffffffff1673ffffffffffffffffffffffffffffffffffffffff1681526020019081526020016000206000828254610efb9190612bd3565b9250508190555050505080610f0f90612845565b9050610d68565b508473ffffffffffffffffffffffffffffffffffffffff168673ffffffffffffffffffffffffffffffffffffffff168273ffffffffffffffffffffffffffffffffffffffff167f4a39dc06d4c0dbc64b70af90fd698a233a518aa5d07e595d983b8c0526c8f7fb8787604051610f8d929190612c29565b60405180910390a4610fa38187878787876115fb565b505050505050565b6000600360009054906101000a900473ffffffffffffffffffffffffffffffffffffffff16905081600360006101000a81548173ffffffffffffffffffffffffffffffffffffffff021916908373ffffffffffffffffffffffffffffffffffffffff1602179055508173ffffffffffffffffffffffffffffffffffffffff168173ffffffffffffffffffffffffffffffffffffffff167f8be0079c531659141344cd1fd0a4f28419497f9722a3daafe3b4186f6b6457e060405160405180910390a35050565b600073ffffffffffffffffffffffffffffffffffffffff168473ffffffffffffffffffffffffffffffffffffffff16036110e0576040517f08c379a00000000000000000000000000000000000000000000000000000000081526004016110d790612cd2565b60405180910390fd5b60006110ea610c76565b905061110b816000876110fc886117d2565b611105886117d2565b876115f3565b8260008086815260200190815260200160002060008773ffffffffffffffffffffffffffffffffffffffff1673ffffffffffffffffffffffffffffffffffffffff168152602001908152602001600020600082825461116a9190612bd3565b925050819055508473ffffffffffffffffffffffffffffffffffffffff16600073ffffffffffffffffffffffffffffffffffffffff168273ffffffffffffffffffffffffffffffffffffffff167fc3d58168c5ae7397731d063d5bbf3d657854427343f4c083240f7aacaa2d0f6287876040516111e8929190612cf2565b60405180910390a46111ff8160008787878761184c565b5050505050565b8173ffffffffffffffffffffffffffffffffffffffff168373ffffffffffffffffffffffffffffffffffffffff1603611274576040517f08c379a000000000000000000000000000000000000000000000000000000000815260040161126b90612d8d565b60405180910390fd5b80600160008573ffffffffffffffffffffffffffffffffffffffff1673ffffffffffffffffffffffffffffffffffffffff16815260200190815260200160002060008473ffffffffffffffffffffffffffffffffffffffff1673ffffffffffffffffffffffffffffffffffffffff16815260200190815260200160002060006101000a81548160ff0219169083151502179055508173ffffffffffffffffffffffffffffffffffffffff168373ffffffffffffffffffffffffffffffffffffffff167f17307eab39ab6107e8899845ad3d59bd9653f200f220920489ca2b5937696c31836040516113659190611c9b565b60405180910390a3505050565b600073ffffffffffffffffffffffffffffffffffffffff168473ffffffffffffffffffffffffffffffffffffffff16036113e1576040517f08c379a00000000000000000000000000000000000000000000000000000000081526004016113d890612b21565b60405180910390fd5b60006113eb610c76565b905061140b8187876113fc886117d2565b611405886117d2565b876115f3565b600080600086815260200190815260200160002060008873ffffffffffffffffffffffffffffffffffffffff1673ffffffffffffffffffffffffffffffffffffffff168152602001908152602001600020549050838110156114a2576040517f08c379a000000000000000000000000000000000000000000000000000000000815260040161149990612bb3565b60405180910390fd5b83810360008087815260200190815260200160002060008973ffffffffffffffffffffffffffffffffffffffff1673ffffffffffffffffffffffffffffffffffffffff168152602001908152602001600020819055508360008087815260200190815260200160002060008873ffffffffffffffffffffffffffffffffffffffff1673ffffffffffffffffffffffffffffffffffffffff16815260200190815260200160002060008282546115579190612bd3565b925050819055508573ffffffffffffffffffffffffffffffffffffffff168773ffffffffffffffffffffffffffffffffffffffff168373ffffffffffffffffffffffffffffffffffffffff167fc3d58168c5ae7397731d063d5bbf3d657854427343f4c083240f7aacaa2d0f6288886040516115d4929190612cf2565b60405180910390a46115ea82888888888861184c565b50505050505050565b505050505050565b61161a8473ffffffffffffffffffffffffffffffffffffffff16611a23565b156117ca578373ffffffffffffffffffffffffffffffffffffffff1663bc197c8187878686866040518663ffffffff1660e01b8152600401611660959493929190612e02565b6020604051808303816000875af192505050801561169c57506040513d601f19601f820116820180604052508101906116999190612e7f565b60015b611741576116a8612eb9565b806308c379a00361170457506116bc612edb565b806116c75750611706565b806040517f08c379a00000000000000000000000000000000000000000000000000000000081526004016116fb9190611efa565b60405180910390fd5b505b6040517f08c379a000000000000000000000000000000000000000000000000000000000815260040161173890612fdd565b60405180910390fd5b63bc197c8160e01b7bffffffffffffffffffffffffffffffffffffffffffffffffffffffff1916817bffffffffffffffffffffffffffffffffffffffffffffffffffffffff1916146117c8576040517f08c379a00000000000000000000000000000000000000000000000000000000081526004016117bf9061306f565b60405180910390fd5b505b505050505050565b60606000600167ffffffffffffffff8111156117f1576117f0611cd1565b5b60405190808252806020026020018201604052801561181f5781602001602082028036833780820191505090505b5090508281600081518110611837576118366127e7565b5b60200260200101818152505080915050919050565b61186b8473ffffffffffffffffffffffffffffffffffffffff16611a23565b15611a1b578373ffffffffffffffffffffffffffffffffffffffff1663f23a6e6187878686866040518663ffffffff1660e01b81526004016118b195949392919061308f565b6020604051808303816000875af19250505080156118ed57506040513d601f19601f820116820180604052508101906118ea9190612e7f565b60015b611992576118f9612eb9565b806308c379a003611955575061190d612edb565b806119185750611957565b806040517f08c379a000000000000000000000000000000000000000000000000000000000815260040161194c9190611efa565b60405180910390fd5b505b6040517f08c379a000000000000000000000000000000000000000000000000000000000815260040161198990612fdd565b60405180910390fd5b63f23a6e6160e01b7bffffffffffffffffffffffffffffffffffffffffffffffffffffffff1916817bffffffffffffffffffffffffffffffffffffffffffffffffffffffff191614611a19576040517f08c379a0000000000000000000000000000000000000000000000000000000008152600401611a109061306f565b60405180910390fd5b505b505050505050565b6000808273ffffffffffffffffffffffffffffffffffffffff163b119050919050565b828054611a5290612692565b90600052602060002090601f016020900481019282611a745760008555611abb565b82601f10611a8d57805160ff1916838001178555611abb565b82800160010185558215611abb579182015b82811115611aba578251825591602001919060010190611a9f565b5b509050611ac89190611acc565b5090565b5b80821115611ae5576000816000905550600101611acd565b5090565b6000604051905090565b600080fd5b600080fd5b600073ffffffffffffffffffffffffffffffffffffffff82169050919050565b6000611b2882611afd565b9050919050565b611b3881611b1d565b8114611b4357600080fd5b50565b600081359050611b5581611b2f565b92915050565b6000819050919050565b611b6e81611b5b565b8114611b7957600080fd5b50565b600081359050611b8b81611b65565b92915050565b60008060408385031215611ba857611ba7611af3565b5b6000611bb685828601611b46565b9250506020611bc785828601611b7c565b9150509250929050565b611bda81611b5b565b82525050565b6000602082019050611bf56000830184611bd1565b92915050565b60007fffffffff0000000000000000000000000000000000000000000000000000000082169050919050565b611c3081611bfb565b8114611c3b57600080fd5b50565b600081359050611c4d81611c27565b92915050565b600060208284031215611c6957611c68611af3565b5b6000611c7784828501611c3e565b91505092915050565b60008115159050919050565b611c9581611c80565b82525050565b6000602082019050611cb06000830184611c8c565b92915050565b600080fd5b600080fd5b6000601f19601f8301169050919050565b7f4e487b7100000000000000000000000000000000000000000000000000000000600052604160045260246000fd5b611d0982611cc0565b810181811067ffffffffffffffff82111715611d2857611d27611cd1565b5b80604052505050565b6000611d3b611ae9565b9050611d478282611d00565b919050565b600067ffffffffffffffff821115611d6757611d66611cd1565b5b611d7082611cc0565b9050602081019050919050565b82818337600083830152505050565b6000611d9f611d9a84611d4c565b611d31565b905082815260208101848484011115611dbb57611dba611cbb565b5b611dc6848285611d7d565b509392505050565b600082601f830112611de357611de2611cb6565b5b8135611df3848260208601611d8c565b91505092915050565b600060208284031215611e1257611e11611af3565b5b600082013567ffffffffffffffff811115611e3057611e2f611af8565b5b611e3c84828501611dce565b91505092915050565b600060208284031215611e5b57611e5a611af3565b5b6000611e6984828501611b7c565b91505092915050565b600081519050919050565b600082825260208201905092915050565b60005b83811015611eac578082015181840152602081019050611e91565b83811115611ebb576000848401525b50505050565b6000611ecc82611e72565b611ed68185611e7d565b9350611ee6818560208601611e8e565b611eef81611cc0565b840191505092915050565b60006020820190508181036000830152611f148184611ec1565b905092915050565b600067ffffffffffffffff821115611f3757611f36611cd1565b5b602082029050602081019050919050565b600080fd5b6000611f60611f5b84611f1c565b611d31565b90508083825260208201905060208402830185811115611f8357611f82611f48565b5b835b81811015611fac5780611f988882611b7c565b845260208401935050602081019050611f85565b5050509392505050565b600082601f830112611fcb57611fca611cb6565b5b8135611fdb848260208601611f4d565b91505092915050565b600067ffffffffffffffff821115611fff57611ffe611cd1565b5b61200882611cc0565b9050602081019050919050565b600061202861202384611fe4565b611d31565b90508281526020810184848401111561204457612043611cbb565b5b61204f848285611d7d565b509392505050565b600082601f83011261206c5761206b611cb6565b5b813561207c848260208601612015565b91505092915050565b600080600080600060a086880312156120a1576120a0611af3565b5b60006120af88828901611b46565b95505060206120c088828901611b46565b945050604086013567ffffffffffffffff8111156120e1576120e0611af8565b5b6120ed88828901611fb6565b935050606086013567ffffffffffffffff81111561210e5761210d611af8565b5b61211a88828901611fb6565b925050608086013567ffffffffffffffff81111561213b5761213a611af8565b5b61214788828901612057565b9150509295509295909350565b600067ffffffffffffffff82111561216f5761216e611cd1565b5b602082029050602081019050919050565b600061219361218e84612154565b611d31565b905080838252602082019050602084028301858111156121b6576121b5611f48565b5b835b818110156121df57806121cb8882611b46565b8452602084019350506020810190506121b8565b5050509392505050565b600082601f8301126121fe576121fd611cb6565b5b813561220e848260208601612180565b91505092915050565b6000806040838503121561222e5761222d611af3565b5b600083013567ffffffffffffffff81111561224c5761224b611af8565b5b612258858286016121e9565b925050602083013567ffffffffffffffff81111561227957612278611af8565b5b61228585828601611fb6565b9150509250929050565b600081519050919050565b600082825260208201905092915050565b6000819050602082019050919050565b6122c481611b5b565b82525050565b60006122d683836122bb565b60208301905092915050565b6000602082019050919050565b60006122fa8261228f565b612304818561229a565b935061230f836122ab565b8060005b8381101561234057815161232788826122ca565b9750612332836122e2565b925050600181019050612313565b5085935050505092915050565b6000602082019050818103600083015261236781846122ef565b905092915050565b6000806040838503121561238657612385611af3565b5b600061239485828601611b7c565b925050602083013567ffffffffffffffff8111156123b5576123b4611af8565b5b6123c185828601611dce565b9150509250929050565b6123d481611b1d565b82525050565b60006020820190506123ef60008301846123cb565b92915050565b6123fe81611c80565b811461240957600080fd5b50565b60008135905061241b816123f5565b92915050565b6000806040838503121561243857612437611af3565b5b600061244685828601611b46565b92505060206124578582860161240c565b9150509250929050565b6000806040838503121561247857612477611af3565b5b600061248685828601611b46565b925050602061249785828601611b46565b9150509250929050565b600080600080600060a086880312156124bd576124bc611af3565b5b60006124cb88828901611b46565b95505060206124dc88828901611b46565b94505060406124ed88828901611b7c565b93505060606124fe88828901611b7c565b925050608086013567ffffffffffffffff81111561251f5761251e611af8565b5b61252b88828901612057565b9150509295509295909350565b60006020828403121561254e5761254d611af3565b5b600061255c84828501611b46565b91505092915050565b7f455243313135353a2062616c616e636520717565727920666f7220746865207a60008201527f65726f2061646472657373000000000000000000000000000000000000000000602082015250565b60006125c1602b83611e7d565b91506125cc82612565565b604082019050919050565b600060208201905081810360008301526125f0816125b4565b9050919050565b7f4f776e61626c653a2063616c6c6572206973206e6f7420746865206f776e6572600082015250565b600061262d602083611e7d565b9150612638826125f7565b602082019050919050565b6000602082019050818103600083015261265c81612620565b9050919050565b7f4e487b7100000000000000000000000000000000000000000000000000000000600052602260045260246000fd5b600060028204905060018216806126aa57607f821691505b6020821081036126bd576126bc612663565b5b50919050565b7f455243313135353a207472616e736665722063616c6c6572206973206e6f742060008201527f6f776e6572206e6f7220617070726f7665640000000000000000000000000000602082015250565b600061271f603283611e7d565b915061272a826126c3565b604082019050919050565b6000602082019050818103600083015261274e81612712565b9050919050565b7f455243313135353a206163636f756e747320616e6420696473206c656e67746860008201527f206d69736d617463680000000000000000000000000000000000000000000000602082015250565b60006127b1602983611e7d565b91506127bc82612755565b604082019050919050565b600060208201905081810360008301526127e0816127a4565b9050919050565b7f4e487b7100000000000000000000000000000000000000000000000000000000600052603260045260246000fd5b7f4e487b7100000000000000000000000000000000000000000000000000000000600052601160045260246000fd5b600061285082611b5b565b91507fffffffffffffffffffffffffffffffffffffffffffffffffffffffffffffffff820361288257612881612816565b5b600182019050919050565b7f416d6f756e74206d7573742062652067726561746572207468616e207a65726f600082015250565b60006128c3602083611e7d565b91506128ce8261288d565b602082019050919050565b600060208201905081810360008301526128f2816128b6565b9050919050565b7f455243313135353a2063616c6c6572206973206e6f74206f776e6572206e6f7260008201527f20617070726f7665640000000000000000000000000000000000000000000000602082015250565b6000612955602983611e7d565b9150612960826128f9565b604082019050919050565b6000602082019050818103600083015261298481612948565b9050919050565b7f4f776e61626c653a206e6577206f776e657220697320746865207a65726f206160008201527f6464726573730000000000000000000000000000000000000000000000000000602082015250565b60006129e7602683611e7d565b91506129f28261298b565b604082019050919050565b60006020820190508181036000830152612a16816129da565b9050919050565b7f455243313135353a2069647320616e6420616d6f756e7473206c656e6774682060008201527f6d69736d61746368000000000000000000000000000000000000000000000000602082015250565b6000612a79602883611e7d565b9150612a8482612a1d565b604082019050919050565b60006020820190508181036000830152612aa881612a6c565b9050919050565b7f455243313135353a207472616e7366657220746f20746865207a65726f20616460008201527f6472657373000000000000000000000000000000000000000000000000000000602082015250565b6000612b0b602583611e7d565b9150612b1682612aaf565b604082019050919050565b60006020820190508181036000830152612b3a81612afe565b9050919050565b7f455243313135353a20696e73756666696369656e742062616c616e636520666f60008201527f72207472616e7366657200000000000000000000000000000000000000000000602082015250565b6000612b9d602a83611e7d565b9150612ba882612b41565b604082019050919050565b60006020820190508181036000830152612bcc81612b90565b9050919050565b6000612bde82611b5b565b9150612be983611b5b565b9250827fffffffffffffffffffffffffffffffffffffffffffffffffffffffffffffffff03821115612c1e57612c1d612816565b5b828201905092915050565b60006040820190508181036000830152612c4381856122ef565b90508181036020830152612c5781846122ef565b90509392505050565b7f455243313135353a206d696e7420746f20746865207a65726f2061646472657360008201527f7300000000000000000000000000000000000000000000000000000000000000602082015250565b6000612cbc602183611e7d565b9150612cc782612c60565b604082019050919050565b60006020820190508181036000830152612ceb81612caf565b9050919050565b6000604082019050612d076000830185611bd1565b612d146020830184611bd1565b9392505050565b7f455243313135353a2073657474696e6720617070726f76616c2073746174757360008201527f20666f722073656c660000000000000000000000000000000000000000000000602082015250565b6000612d77602983611e7d565b9150612d8282612d1b565b604082019050919050565b60006020820190508181036000830152612da681612d6a565b9050919050565b600081519050919050565b600082825260208201905092915050565b6000612dd482612dad565b612dde8185612db8565b9350612dee818560208601611e8e565b612df781611cc0565b840191505092915050565b600060a082019050612e1760008301886123cb565b612e2460208301876123cb565b8181036040830152612e3681866122ef565b90508181036060830152612e4a81856122ef565b90508181036080830152612e5e8184612dc9565b90509695505050505050565b600081519050612e7981611c27565b92915050565b600060208284031215612e9557612e94611af3565b5b6000612ea384828501612e6a565b91505092915050565b60008160e01c9050919050565b600060033d1115612ed85760046000803e612ed5600051612eac565b90505b90565b600060443d10612f6857612eed611ae9565b60043d036004823e80513d602482011167ffffffffffffffff82111715612f15575050612f68565b808201805167ffffffffffffffff811115612f335750505050612f68565b80602083010160043d038501811115612f50575050505050612f68565b612f5f82602001850186611d00565b82955050505050505b90565b7f455243313135353a207472616e7366657220746f206e6f6e204552433131353560008201527f526563656976657220696d706c656d656e746572000000000000000000000000602082015250565b6000612fc7603483611e7d565b9150612fd282612f6b565b604082019050919050565b60006020820190508181036000830152612ff681612fba565b9050919050565b7f455243313135353a204552433131353552656365697665722072656a6563746560008201527f6420746f6b656e73000000000000000000000000000000000000000000000000602082015250565b6000613059602883611e7d565b915061306482612ffd565b604082019050919050565b600060208201905081810360008301526130888161304c565b9050919050565b600060a0820190506130a460008301886123cb565b6130b160208301876123cb565b6130be6040830186611bd1565b6130cb6060830185611bd1565b81810360808301526130dd8184612dc9565b9050969550505050505056fea2646970667358221220cb8dd59549ec88046e3993cd26dddbfa635829808144cbbc5e4dd7fae5dbd2a164736f6c634300080d0033",
  "immutableReferences": {},
  "source": "// SPDX-License-Identifier: MIT\npragma solidity >=0.4.22 <0.9.0;\n\nimport \"@openzeppelin/contracts/token/ERC1155/ERC1155.sol\";\n\nimport \"@openzeppelin/contracts/access/Ownable.sol\";\n\ncontract NFT1155 is ERC1155, Ownable {\n    uint256 public tokenCount;\n    \n    //For Mapping Specific Token Ids to it's corresponding token URI.\n    struct tokenURI {\n        string URI;\n    }\n\n    mapping(uint256 => tokenURI) public tokenURIs;\n\n\n    constructor() ERC1155(\"\") {}\n\n    function setURI(string memory newuri) public onlyOwner {\n        _setURI(newuri);\n    }\n\n    function mint(uint256 _amount, string memory _tokenURI)\n        public\n        returns (uint256)\n    {\n        require(_amount > 0, \"Amount must be greater than zero\");\n\n        tokenCount++;\n        _setURI(_tokenURI);\n        tokenURIs[tokenCount] = tokenURI (\n            _tokenURI\n        );\n    _mint(msg.sender, tokenCount, _amount, \"\");\n\n        return (tokenCount);\n    }\n}\n",
  "sourcePath": "/media/arya/_dev_sda3/blockChainProjects/nft-marketplace/my-nft-marketplace/src/contracts/NFT1155.sol",
  "compiler": {
    "name": "solc",
    "version": "0.8.13+commit.abaa5c0e.Emscripten.clang"
  },
  "schemaVersion": "3.4.6",
  "updatedAt": "2022-04-05T09:41:14.638Z",
  "networkType": "ethereum",
  "devdoc": {
    "kind": "dev",
    "methods": {
      "balanceOf(address,uint256)": {
        "details": "See {IERC1155-balanceOf}. Requirements: - `account` cannot be the zero address."
      },
      "balanceOfBatch(address[],uint256[])": {
        "details": "See {IERC1155-balanceOfBatch}. Requirements: - `accounts` and `ids` must have the same length."
      },
      "isApprovedForAll(address,address)": {
        "details": "See {IERC1155-isApprovedForAll}."
      },
      "owner()": {
        "details": "Returns the address of the current owner."
      },
      "renounceOwnership()": {
        "details": "Leaves the contract without owner. It will not be possible to call `onlyOwner` functions anymore. Can only be called by the current owner. NOTE: Renouncing ownership will leave the contract without an owner, thereby removing any functionality that is only available to the owner."
      },
      "safeBatchTransferFrom(address,address,uint256[],uint256[],bytes)": {
        "details": "See {IERC1155-safeBatchTransferFrom}."
      },
      "safeTransferFrom(address,address,uint256,uint256,bytes)": {
        "details": "See {IERC1155-safeTransferFrom}."
      },
      "setApprovalForAll(address,bool)": {
        "details": "See {IERC1155-setApprovalForAll}."
      },
      "supportsInterface(bytes4)": {
        "details": "See {IERC165-supportsInterface}."
      },
      "transferOwnership(address)": {
        "details": "Transfers ownership of the contract to a new account (`newOwner`). Can only be called by the current owner."
      },
      "uri(uint256)": {
        "details": "See {IERC1155MetadataURI-uri}. This implementation returns the same URI for *all* token types. It relies on the token type ID substitution mechanism https://eips.ethereum.org/EIPS/eip-1155#metadata[defined in the EIP]. Clients calling this function must replace the `\\{id\\}` substring with the actual token type ID."
      }
    },
    "version": 1
  },
  "userdoc": {
    "kind": "user",
    "methods": {},
    "version": 1
  }
}